:077DE300253031306C750002
:10083000C2AFE4F523127DBC75210B127DC67F602B
:1008400012755B127B7C126A48E4F50A127E08126C
:100850007E027F64127C98127E087F64127C987EF0
:10086000017F19127607EF6003750A01127DFC7B88
:10087000017A0279A9E4FF1237629002ABE090009E
:1008800004F0127DF6E4900003F020950B127DEA4F
:100890007F0A127C98127D1A900004E01221F5184C
:1008A000920018A21018DC11190712195B13199382
:1008B000141A4A201ACD211BD6251C0826091530EA
:1008C000096D3109A1320AD1330B84340BCA350CBE
:1008D0001E360CB7380D04390ECA3A0F3D3B0FCA0D
:1008E0003C10033D0C633E12A74014C94115AF43B1
:1008F000161C4416CE45171B4E174E501879510F33
:10090000E3551C40A01CA1A11CD4A21D44A31D5D45
:10091000A400001D7D9002B0E07005A3E0F4600922
:100920009000037463F0021D83127BDA900000EFE5
:10093000F06403600AE0FF64046004EFB40109900E
:1009400000037461F0021D837B017A0279AD126DA0
:100950002EEF60099000037460F0021D837B017A22
:1009600003790DE4FD7F01124B0D021D837B017A9B
:10097000017919126DBB9002AF7459F07B017A02B4
:1009800079AD12722DEF60099000037460F0021DC2
:10099000837B017A03790DE4FD7F01124B0D021D6B
:1009A00083126F49900003EFF06003021D83127BF6
:1009B000DA900000EFF064036004E0B404099000F2
:1009C000037451F0021D837B017A00790112730ECA
:1009D000900003EFF06003021D83900001E064309B
:1009E0006009900003741EF0021D837F007E0212D6
:1009F000773FEF7009900003741FF0021D83900091
:100A000000E06402600D1272A1900003EFF0601F1D
:100A1000021D83E4FF1267D0900003EFF060030231
:100A20001D831250FB900003EFF06003021D831240
:100A30003F6F900003EFF06003021D83752C01757A
:100A40002D19E4F52EFF7E02FDFC12521E900003CC
:100A5000EFF06003021D837B017A0079017D017C48
:100A6000007F097E00127AE8900001E004F07B012B
:100A70007A0079017D017C007F097E00127A807BFB
:100A8000017A017919126DBB7B017A0179197D0315
:100A90007C007FD07E04127A807B017A0179197DF7
:100AA000037C007FD67E04127A809000007403F0ED
:100AB0007B017A0079007D017C007F087E00127A3C
:100AC000807B017A03790DE4FD7F01124B0D021D3D
:100AD000837C027DB07A027BB9E4F52BF52C752D71
:100AE00000752ECAFF123DAE900003EFF0600302C6
:100AF0001D837B017A0079017D017C007F097E00E6
:100B0000127AE8900001E0FF7C007D151278A19038
:100B10000003EFF06003021D83780D7C037D017BF1
:100B2000017A0079517E007F12121E70781F7C03BB
:100B30007D017B017A0079637E007F05121E70784B
:100B4000247C037D017B017A0079E07E007F08121E
:100B50001E707E007F087D007B017A03792C1223B2
:100B6000C578347C037D017B017A0079CA7E007FE1
:100B700003121E707B017A03790D7D2A7F01124BCF
:100B80000D021D837C027DB07A027BB9752B027544
:100B90002CC2752D00752ECA7F03123DAE90000346
:100BA000EFF06003021D83780D7C037D017B017AE9
:100BB0000079CA7E007F03121E707B017A03790DD3
:100BC0007D037F01124B0D021D837E007F097D0096
:100BD0007B017A0079D61223C57C027DB07A007B36
:100BE000D6E4F52BF52C752D00752ECA7F01123D2C
:100BF000AE900003EFF06003021D83780D7C037D4F
:100C0000017B017A0079CA7E007F03121E707B018E
:100C10007A03790D7D037F01124B0D021D837C0247
:100C20007DB07A027BB9E4F52BF52C752D00752E7D
:100C3000CA7F02123DAE900003EFF06003021D83F5
:100C4000780D7C037D017B017A0079CA7E007F03E9
:100C5000121E707B017A03790D7D037F01124B0D0B
:100C6000021D837E007F097D007B017A0079CD1211
:100C700023C57C007DCD7A027BADE4F52BF52C7588
:100C80002D00752ECA7F05123DAE900003EFF06077
:100C900003021D83780D7C037D017B017A0079CAF4
:100CA0007E007F03121E707B017A03790D7D037F26
:100CB00001124B0D021D83127BDA900000EFF0B49D
:100CC00002099000037454F0021D837B017A0379BA
:100CD0000D7D017C007F097E00127AE890030DE013
:100CE00070099000037454F0021D837B017A03792C
:100CF0000E126DBB7B017A03790D7D047F01124BCF
:100D00000D021D83E4900005F0126F49900005EF7D
:100D1000F0B40C09900003740CF0021D83E4FF1280
:100D2000486E900003EFF06003021D83126A4812C0
:100D30007BDA900000EFF0B402099000037454F0E5
:100D4000021D837B017A00790112730E900003EF7C
:100D5000F06003021D83900001E0FF6430600EEF3D
:100D6000643260099000037417F0021D837D0A7FCE
:100D700008122FE4900003EFF06003021D8390003F
:100D800005E070077D0A7F07122FE49000027406C9
:100D9000F0900000E0B401069000027405F09000AD
:100DA00001E0FFA3E0FD7A007B761271B9900003A9
:100DB000EFF06003021D83780D7C037D017B017AD7
:100DC0000079937E007F0D121E70781A7C037D01DE
:100DD0007B017A0079A37E007F03121E70781D7C50
:100DE000037D017B017A0079A67E007F0A121E70C6
:100DF00078277C037D017B017A0079A07E007F0348
:100E0000121E70782A7C037D017B017A0079B07E06
:100E1000007F03121E70782D7C037D017B017A0018
:100E200079B37E007F0A121E7078377C037D017BC8
:100E3000017A0079C27E007F08121E70783F7C0321
:100E40007D017B017A0079BF7E007F03121E7078DE
:100E5000427C037D017B017A0079BD7E007F021216
:100E60001E7078447C037D017B017A00798D7E00C1
:100E70007F03121E7078477C037D017B017A007925
:100E8000907E007F03121E709000B0E07008A3E017
:100E90007004A3E06015784A7C037D017B017A0E23
:100EA000790E7E007F0A121E70800F7E007F0A7D01
:100EB000007B017A03794A1223C57B017A03790DFD
:100EC0007D477F01124B0D021D83127BDA900000DB
:100ED000EFF0B402099000037454F0021D839000F7
:100EE00000E0B401099000037452F0021D832095C4
:100EF0001F126F49900003EFF0700C7D0A7F0712FC
:100F00002FE4900003EFF0900003E06003021D83E4
:100F1000126A487B017A03790D126DBB7B017A035B
:100F200079107D037C007F4F7E04127AE87B017A82
:100F300003790D7D067F01124B0D021D83127BDAB2
:100F4000900000EFF0B402099000037454F0021D09
:100F5000837B017A0079017D017C007F097E00128C
:100F60007AE8900001E0FF7C007D151278A19000E6
:100F700003EFF06003021D83780D7C037D017B018C
:100F80007A0079157E007F53121E7078607C037D95
:100F9000017B017A00796D7E007F07121E707B0154
:100FA0007A017919126DBB78637C037D017B017A2C
:100FB0000179197E007F03121E707B017A03790D7F
:100FC0007D5A7F01124B0D021D837B017A03790D3F
:100FD000126DBB7B017A03790D7D057F01124B0DEC
:100FE000021D839002ADE0B4CD10A3E0B4A30BA327
:100FF000E0B4BB06A3E064FA60099000037463F0F8
:10100000021D83127BDA900000EFF0B40209900019
:10101000037454F0021D837B017A00790612730E6B
:10102000900003EFF06003021D83900006E0FF6470
:1010300030600EEF643260099000037417F0021DF7
:10104000837D0A7F08122FE4900003EFF060030213
:101050001D83900000E064017003021106E490001B
:1010600005F0126F49900003EFF06010E0640C701F
:1010700003021D839000057401F080557D0A7F07EF
:10108000122FE47B017A0079017D017C007FDE7EF6
:1010900004127AE8900001E060377E017F1912693E
:1010A0000E7B017A01791C7D037C007FD37E0412C4
:1010B0007AE875560175570175581C7B017A0179DC
:1010C000191270C6EFB40209900003746DF0021D8E
:1010D000837F0112486E900003EFF06003021D83CE
:1010E000900005E0B4011FE4900002F07B017A005B
:1010F00079027D01FC7FDE7E04127A80900003EF8E
:10110000F06003021D83900006E0FF7A007B767D8D
:10111000051271B9900003EFF06003021D83900087
:1011200000E06401606E7B017A0079017D017C0042
:101130007F097E00127AE87B017A017919126DBB72
:10114000900001E0FF7C007D151278A1900003EF74
:10115000F06003021D8378707C007D017B017A01C1
:1011600079197E007F03121E70900001E0FF7C0061
:101170007D151274A5900003EFF06003021D8390AB
:1011800000007401F0FB7A007900FD7C007F087E8E
:1011900000127A80780D7C037D017B017A007993BF
:1011A0007E007F0D121E70781A7C037D017B017A10
:1011B0000079A37E007F03121E70781D7C037D01E1
:1011C0007B017A0079A67E007F0A121E7078277C48
:1011D000037D017B017A0079A07E007F03121E70DF
:1011E000782A7C037D017B017A0079B07E007F0341
:1011F000121E70782D7C037D017B017A0079B37E0D
:10120000007F0A121E7078377C037D017B017A0013
:1012100079C27E007F08121E70783F7C037D017BBF
:10122000017A0079BF7E007F03121E7078427C0332
:101230007D017B017A0079BD7E007F02121E7078ED
:10124000447C037D017B017A00798D7E007F03124F
:101250001E7078477C037D017B017A0079907E00C7
:101260007F03121E709000B0E07008A3E07004A32A
:10127000E06015784A7C037D017B017A0E790E7E51
:10128000007F0A121E70800F7E007F0A7D007B01A6
:101290007A03794A1223C57B017A03790D7D477F52
:1012A00001124B0D021D83127BDA900000EFF0B4A7
:1012B00002099000037454F0021D837B017A0079C7
:1012C000017D017C007F097E00127AE8900001E038
:1012D000FF7C007D151278A1900003EFF0600302FF
:1012E0001D837B017A017919126DBB755601755703
:1012F000027558AD7B017A00796D1270C6EF6402F9
:1013000060167556017557017558197B017A027977
:10131000AD1270C6EFB4021F7E007F2D7D007B01F1
:101320007A03790D1223C57B017A03790D7D2D7F18
:1013300001124B0D021D8378AD7C027D017B017A89
:101340000179197E007F031223A1EF6003021423A9
:10135000900000E0640170030213EE7B017A0079D3
:10136000EA7D2F7C007F7C7E04127AE8780D7C0376
:101370007D017B017A0079ED7E007F0D121E707871
:101380001A7C037D017B017A0079FD7E007F0312C8
:101390001E70781D7C037D017B017A0179007E003F
:1013A0007F0A121E7078277C037D017B017A007909
:1013B000FA7E007F03121E70782A7C037D017B0178
:1013C0007A01790A7E007F03121E70782D7C037DDE
:1013D000017B017A01790D7E007F0A121E707B016C
:1013E0007A03790D7D2A7F01124B0D021D837556FC
:1013F000017557007558707B017A0279AD1270C67D
:10140000EFB4021F7E007F2D7D007B017A03790DF2
:101410001223C57B017A03790D7D2D7F01124B0DBF
:10142000021D83E4FF12486E900003EFF060030298
:101430001D837E027FAD7C007DEA125E4D9000032D
:10144000EFF06003021D83780D7C037D017B017A40
:101450000079ED7E007F0D121E70781A7C037D01ED
:101460007B017A0079FD7E007F03121E70781D7C5F
:10147000037D017B017A0179007E007F0A121E70D4
:1014800078277C037D017B017A0079FA7E007F0357
:10149000121E70782A7C037D017B017A01790A7E15
:1014A000007F03121E70782D7C037D017B017A0181
:1014B000790D7E007F0A121E707B017A03790D7D03
:1014C0002A7F01124B0D021D839002ACE06405706F
:1014D0000302157B7B017A00790D12578D90000372
:1014E000EFF06003021D837529FF752A7D752BE3DC
:1014F00090000D12215A8F2F8E2E8D2D8C2C7B015A
:101500007A03790D1229DAE4900001F0900001E0ED
:10151000C394055047E0FF24ADF582E43402F5831F
:10152000E0FEC4540F2430FE75F002EF9001191252
:1015300021E9EEF0900001E0FF24ADF582E43402F1
:10154000F583E0540F2430FE75F002EF90011A127B
:1015500021E9EEF0900001E004F080B0780E7C0309
:101560007D017B017A01791A7E007F091223A1EFA8
:10157000602D900003746EF0021D837B017A007968
:101580000112730E900003EFF06003021D839000C0
:1015900001E0643160099000037416F0021D837B42
:1015A000017A03790DE4FD7F01124B0D021D837E4C
:1015B000007F067D007B017A03790D1223C5127B23
:1015C000DA900000EFF06402603A7B017A00790162
:1015D0007D017C007F097E00127AE8900001E0FF27
:1015E0007C007D151278A1900003EFF06003021DCE
:1015F00083780D7C037D017B017A0079687E007F12
:1016000005121E70900000E090030DF07B017A033C
:10161000790D7D067F01124B0D021D83127BDA903E
:101620000000EFF0B401099000037452F0021D8332
:10163000900000E0B402099000037454F0021D838E
:101640007B017A0079017D017C007F097E00127A9E
:10165000E8900001E070099000037454F0021D83CB
:101660007D097F08122FE4900003EFF06003021D54
:10167000837B017A0079017D017C007F097E001265
:101680007AE8900001E0FF7C007D151278A19000BF
:1016900003EFF06003021D83780D7C037D017B0165
:1016A0007A0079157E007F3C121E7078497C037D9C
:1016B000017B017A0079737E007F01121E707B012D
:1016C0007A03790D7D3D7F01124B0D021D8390023F
:1016D000ADE004FF7C007D151278A1900003EFF0CF
:1016E0006003021D83780D7C037D017B017A007904
:1016F000157E007F53121E7078607C037D017B0194
:101700007A00796D7E007F07121E707B017A037963
:101710000D7D5A7F01124B0D021D839002ADE070CA
:1017200005A3E0F460099000037463F0021D83E4F4
:10173000FF1267D0900003EFF06003021D837B016E
:101740007A03790DE4FD7F01124B0D021D83126FA8
:1017500049900003EFF0B40C06740CF0021D8312E4
:101760006A48127BDA900000EFF0B402099000039F
:101770007454F0021D83E4FF12486E900003EFF0F2
:101780006003021D837B017A00790112730E9000C1
:1017900003EFF06003021D83900001E064316009F3
:1017A0009000037416F0021D837A007B767D067F1D
:1017B000311271B9900003EFF06003021D83780DC0
:1017C0007C037D017B017A0079937E007F0D121EE0
:1017D00070781A7C037D017B017A0079A37E007FFB
:1017E00003121E70781D7C037D017B017A0079A6AF
:1017F0007E007F0A121E7078277C037D017B017AB0
:101800000079A07E007F03121E70782A7C037D0180
:101810007B017A0079B07E007F03121E70782D7CE8
:10182000037D017B017A0079B37E007F0A121E706E
:1018300078377C037D017B017A0079C27E007F08C6
:10184000121E70783F7C037D017B017A0079BF7E98
:10185000007F03121E7078427C037D017B017A00B9
:1018600079BD7E007F02121E707B017A03790D7DA7
:10187000377F01124B0D021D83E4900119F0A37410
:10188000C8F07B017A0179197D027F01124B0D02AC
:101890001D837B017A03790DE4FD7F01124B0D025C
:1018A0001D8375460875470175480375490D7FF618
:1018B0007EFF7D077C00127377EF60107B017A0357
:1018C000790D7D087C00E4FFFE127AE87B017A0343
:1018D000790D7D087F01124B0D021D837B017A0378
:1018E000790D7D017C007F097E00127AE890030D5E
:1018F000E0B40A037410F07B017A03790D7D017F57
:1019000001124B0D021D837B017A0079027D017C5F
:10191000007F097E00127AE89002ADE0900001F0AD
:10192000C39401400CA3E0FE900001E0FFD39E4071
:10193000099000037470F0021D837C037D0D127802
:10194000A1900003EFF06003021D837B017A03790D
:101950000D7D5E7F01124B0D021D837B017A0079A4
:10196000097D027C007F0A7E00127AE8900009E07F
:10197000FEA3E0FFE4FCFD755903755A03755B0D8A
:1019800012668D7B017A03790D7D037F01124B0D69
:10199000021D837B017A00790D753A02753BAD7D9E
:1019A0000312630490000FE0FFA3E090000BCFF060
:1019B000A3EFF07B017A0079097D027C007F0A7E2B
:1019C00000127AE890000BE0FEA3E0FFC39401EE62
:1019D0009400400F900009E0FCA3E0FDD3EF9DEEE2
:1019E0009C40099000037470F0021D8390000CE08D
:1019F00024FFFF90000BE034FFFEE4FCFD7B2FFA98
:101A0000F9F8121FF2E42FFFE43EFEED3406FDE488
:101A10003CFC90001112219290001112215A753E47
:101A20002F753F0175400375410D124C489000031E
:101A3000EFF060067420F0021D837B017A03790DBC
:101A40007D2D7F01124B0D021D839002ADE0B4206D
:101A5000137B017A00790D7D047C007F787E04126F
:101A60007AE880117B017A00790D7D047C007F6229
:101A70007E04127AE87B017A0079117D047C007F74
:101A80006A7E04127AE890001112215A8F4C8E4B14
:101A90008D4A8C49754D01754E00754F0790000DAC
:101AA00012215A125452900007E0FEA3E0FFE4FC1A
:101AB000FD755903755A03755B0D12668D7B017AAE
:101AC00003790D7D037F01124B0D021D839002AD42
:101AD000E0642170337B017A00790D753A02753B21
:101AE000AE7D0312630490000FE0FFA3E090000BB3
:101AF000CFF0A3EFF07B017A00790D7D047C007FAD
:101B0000787E04127AE880317B017A00790D753A8B
:101B100002753BAD7D0312630490000FE0FFA3E06C
:101B200090000BCFF0A3EFF07B017A00790D7D04DC
:101B30007C007F627E04127AE87B017A0079117D55
:101B4000047C007F6A7E04127AE890001112215A08
:101B50008F4C8E4B8D4A8C49754D01754E00754FDB
:101B60000790000D12215A12545290000BE0FEA370
:101B7000E0FFC39401EE9400400F900007E0FCA347
:101B8000E0FDD3EF9DEE9C40099000037470F002DD
:101B90001D8390000D12215A90000BE0F52AA3E05E
:101BA000F52B752C01752D00752E11124D7D9000B1
:101BB0001112215A75500075511E7552017553034B
:101BC00075540D126EC57B017A03790D7D1E7F0160
:101BD000124B0D021D83126F49900003EFF060035A
:101BE000021D837A017B197D057F501244239000EA
:101BF00003EFF06003021D837B017A01791C7D06EF
:101C00007F01124B0D021D837B017A00790B7D024F
:101C10007C007F0C7E00127AE890000BE0FEA3E0CF
:101C2000FFE4FCFD755904755A03755B0D12668D52
:101C30007B017A03790D7D047F01124B0D021D8318
:101C40003095099000037412F0021D83753A0075F7
:101C50003B5E753C01753D197F007E007D007C0078
:101C6000126532753A00753B10753C01753D777F02
:101C7000007E017D007C00126532753A00753B01E3
:101C8000753C01753D877F907E017D007C0012656B
:101C9000327B017A0179197D6F7F01124B0D021D94
:101CA000833095099000037412F0021D83753A0089
:101CB000753B80753C01753D197F007E027D007C7F
:101CC000001265327B017A0179197D807F01124B08
:101CD0000D021D833095099000037412F0021D83DC
:101CE000753A00753B54753C01753D197F007E03C4
:101CF0007D007C00126532753A00753B80753C01B1
:101D0000753D6D7F007E047D007C00126532753A62
:101D100000753B02753C03753D0D7F007E307D00F4
:101D20007C0012653290030EE09001EDF090030DFF
:101D3000E09001EEF07B017A0179197DD67F0112E6
:101D40004B0D803F126F49900003EFF070357B011F
:101D50007A03790DE4FD7F01124B0D80267B017A19
:101D600003790D7D037C007FD07E04127AE87B012D
:101D70007A03790D7D037F01124B0D8006900003DD
:101D80007463F0900003E0600D7B017A0079037DBD
:101D9000017F04124B0D127DFC127DF002086C22B3
:106870008F4F8E4E8D4D8C4C8B508A518952E54FE7
:106880002420FFE4354EFEE4354DFDE4354CFC900C
:1068900006A612219274FFE54DFDE54CFC74FF2421
:1068A00001FBE434FFFAE43DF9E43CF89006A6125B
:1068B000215AEF2420FFE43EFEE43DFDE43CFCC30E
:1068C00012210F503974FFE54DFDE54CFC74FF2497
:1068D00001FFE434FFFEE43DFDE43CFC9006A6121B
:1068E0002192E4FFFE7D06FC9006A6122166C312EB
:1068F000210F400A9006A612219E0000000090067B
:0E690000A612215AAB50AA51A95212214022D0
:106FCA008F4F8E4E8D4D8C4C8B508A518952E54F86
:106FDA0024E0FFE54E34FFFEE54D34FFFDE54C3479
:106FEA00FFFC9006A6122192E54FFFE54EFEE4FD56
:106FFA00FCFBFAF9F8C312210F7035FFFEFDFCAB5A
:10700A004FAA4EA94DA84CC312210F7009F54FF58E
:10701A004E754D06F54CE54F24E0FFE54E34FFFE74
:10702A00E54D34FFFDE54C34FFFC9006A612219293
:10703A009006A612215AAB50AA51A95212214022F7
:104D7D008F298E288D278C26E490043AF090043DDF
:104D8D007408F0A3E4F090043DE0FEA3E0FFE4FC22
:104D9D00FD7B20FAF9F8121FF2EFF404900439F0BC
:104DAD00E4FFFEE527540FFDE4FC90043F12219231
:104DBD0090043F122166C3E5299BFFE5289AFEE585
:104DCD002799FDE52698FCE47B20FAF9F812207D61
:104DDD0090043BEEF0A3EFF0C3E49FFF74089EFE3A
:104DED0090043BF0A3EFF0D3E52B9FE52A9E4025E1
:104DFD0090043BE0FEA3E0FFE52B9FCFE52A9ECF7D
:104E0D0024FFCF34FFFEA3E0FCA3E0FD121F22EF31
:104E1D000490043AF0E52B24FFFFE52A34FFFEE46D
:104E2D00FCFD7B20FAF9F8121FF2EF2529FFEE3574
:104E3D0028FEED3527FDEC3526FCA804A905AA06AC
:104E4D00AB0790043AE0FF900439E08FF0A4FFAE79
:104E5D00F0E4FCFD121FD790043F122192E4FFFEF7
:104E6D007D06FC90043F122166C312210F401D9058
:104E7D00043F12215AE4FBFA7906F812207DAC00AA
:104E8D00AD01AE02AF0390043F12219290043F1288
:0C4E9D00215AAB2CAA2DA92E1221402274
:105452008F488E478D468C45AF4CAE4BAD4AAC491A
:10546200AB48AA47A946A845C312210F700BAB4D02
:10547200AA4EA94FF5F0121FB8AF4CAE4BAD4AACD5
:10548200499005031221929004FF7408F0A3E4F0FE
:105492009004FFE0FEA3E0FFE4FCFD7B20FAF9F8B4
:1054A200121FF2EFF4049004FDF0AF48AE47AD4690
:1054B200AC45900503122166C312210F50199005C5
:1054C2000312215AE42FFFE43EFEED3406FDE43CD4
:1054D200FC90050312219290050312215AE4FBFA73
:1054E200ED540FF9E4F890050312215AE4FFFEEDA2
:1054F200540FFDE4FC121FE4E47901F812207D90C0
:1055020004FEEFF09004FDE0FFA3E08FF0A4FF9013
:105512000501E5F0F0A3EFF0A312215AC3EF95487D
:10552200FFEE9547FEED9546FDEC9545FCC004C0A7
:1055320005C006C007900501E0FEA3E0FFE4FCFD04
:10554200F8F9AA06AB07D007D006D005D004121F7F
:10555200E4E47B20FA12207DAB4DAA4EA94FEE8FD8
:05556200F0121FB82249
:107B4C00AC069006A7ECF09006A6EFF0AF51AE5045
:107B5C00AD4FAC4E7556007557027558067559A643
:107B6C00125F239006A8EFF060037F19227F00229A
:10704A00AD07AC063095037F1222AF05AE04753F3B
:10705A00017540047541BD7542017543047544B715
:10706A007B017A0479B91249C59004B7E0F53EA3C9
:10707A00E0F53F853143853042852F41852E408595
:10708A00354785344685334585324485394B8538BD
:10709A004A853749853648A312215A12249D9004FD
:1070AA00B6EFF06003E0FF227B017A0479BD7D042C
:0C70BA007C007F727E04127A807F00222E
:1065E8008F27900C7F12219E000000007B017A0CFF
:1065F800797F7D047C007F627E04127A80900C7E15
:10660800EFF070437B017A0C797F7D04FC7F6A7E12
:1066180004127A80900C7EEFF0702C7B017A0C7952
:106628007F7D04FC7F727E04127A80900C7EEFF0EE
:1066380070157B017A0C797F7D04FC7F787E0412CB
:106648007A80900C7EEFF0900C7EE060037F402211
:10665800E4FF12785D900C7EEFF060037F2022E566
:106668002770167F0612785D900C7EEFF0700A7F17
:106678000712785D900C7EEFF0900C7EE060037F4F
:0566880020227F00222A
:107443007B017A0579FC7D047C007F727E04127ACD
:10745300E87B017A0579FC7D047C007F627E04125F
:107463007A809005FBEFF060037F40227B017A0670
:1074730079007D047C007F6A7E04127AE89006001E
:1074830012215A9005FC122166C312210F70107B42
:10749300017A0579FC7D04FC7F6A7E04127A807F81
:0274A3000022C5
:1032B6008E318F328C338D348B35E490049CF07BC9
:1032C600017A0479A67D04FC7F627E04127AE87B8B
:1032D600017A0479AE7D047C007F6A7E04127AE866
:1032E6009004AE12215A8F4C8E4B8D4A8C49754DE7
:1032F60001754E04754F9E9004A612215A1254521F
:103306009004AE12215A7B017A0479AA126FCA7B05
:10331600017A0479A07D047C007F0A7E00127AE897
:1033260090049EE07002A3E070030233BD9004AAED
:1033360012215A7550007551037552017553047563
:1033460054B2126EC5AA31A9327B01C0038B5675E1
:1033560057047558B2D0031270C6EF70037F60220F
:103366009004A0E0FEA3E0FF4E6078EF24FFFFEE9E
:1033760034FFFEE4FCFD7B2FFAF9F8121FF2E42F6E
:10338600FFE43EFEED3406FDE43CFC753E2F753F42
:10339600017540047541B2124C48AA31A9327B012D
:1033A600C0038B567557047558B2D0031270C6EF1A
:1033B6006402602F7F60227B017A0479B27D037CF0
:1033C600007FD07E04127AE8AA31A9327B01C003BD
:1033D6008B567557047558B2D0031270C6EF70033A
:1033E6007F60229004AA12215A9004A2122192E42C
:1033F60090049CF090049EE07002A3E070030235F6
:1034060016E490049DF090049DE0C39414400302DA
:1034160035169004A212215AEF2403FFE43EFEE47F
:103426003DFDE43CFC755000755113755201755312
:10343600047554B2126EC5E5357042AA33A9347BC1
:103446000178B27C047D01FE7F091223A1EF70088A
:1034560090049C04F00235169004C4E06403707A6C
:10346600AA33A9347B0178BB7C047D01FE7F091257
:1034760023A1EF706590049C04F0023516E53564CF
:10348600017038AA33A9347B0178B27C047D01FE31
:103496007F091223A1EF70037F26229004C4E06403
:1034A600037037AA33A9347B0178BB7C047D01FE07
:1034B6007F091223A1EF70227F2622AA33A9347B2B
:1034C6000178B27C047D017E007F091223A1EF7092
:1034D600099004C4E060037F25229004A612215AB5
:1034E6009004A2122166C312210F60249004A21236
:1034F600215A7B017A0479AE126FCA9004AE12216A
:103506005A9004A212219290049DE004F002340C19
:0D35160090049CE0B401037F24227F00227A
:1067D0008F26900C7A7407F0A374D0F0E4900C78B4
:1067E000F0A3F0900C7AE0FCA3E0FD900C78E0FEC2
:1067F000A3E0FFC39DEE9C501774A82FF58274048C
:106800003EF583E4F0900C7875F001121F7780D389
:10681000E526700A900C7CF0A37409F0800A900CB5
:106820007C7404F0A3744CF0900C7CE0FEA3E0FFB9
:106830007B017A0479A8127A809004A7EFF06003B4
:106840007F4022E52670179004A674FFF07B017A42
:106850000479A67D017C007F087E00127A80AF2635
:106860001265E89004A7EFF06003E0FF227F0022AA
:10486E008F2F7B017A04799C7D017C007F087E006E
:10487E00127AE890049BEFF060037F402290049C34
:10488E00E0FF64036008EF640460030249C27B0129
:10489E007A0479977D027C007F0A7E00127AE87B8B
:1048AE00017A04799D7D047C007F627E04127AE891
:1048BE007B017A0479A17D047C007F6A7E04127AE2
:1048CE00E89004A112215A8F4C8E4B8D4A8C49755B
:1048DE004D01754E04754F9990049D12215A125434
:1048EE00527B017A0479A97D2F7C007F7C7E041295
:1048FE007AE87B017A047965126DBB75560175579E
:10490E00047558A97B017A0479651270C6EF70039D
:10491E007F6022900499E07002A3E070030249C206
:10492E009004AAE070030249C275560175570475CA
:10493E0058A97B017A0479651270C6EF640260068D
:10494E00E52F6401706E127DFC7F64127C98127DDF
:10495E00F6900497E0FEA3E0FFE4FCFD7B2FFAF94E
:10496E00F8121FF2E42FFFE43EFEED3406FDE43CA8
:10497E00FC9004A51221927B017A0479A9125D7331
:10498E0090049BEFF06003E0FF227E007F2F7D00FE
:10499E007B017A0479A91223C57B017A0479A97D5A
:1049AE002F7C007F7C7E04127A8090049BEFF06057
:0749BE00037F40227F00226D
:105C9300AA06A9077B0178AD7C047D017E007F1EE7
:105CA300121E707B017A0479CD7D2F7C007F7C7E70
:105CB30004127AE89004CEE0701478CD7C047D0160
:105CC3007B017A0479ADFE7F03121E7080117C0480
:105CD3007DCD7F2F7E001276F6EF60037F4022900A
:105CE30004C2E014602414602A14603D24FE604260
:105CF3002405704B7E047FD0127CEB7C047DD37A29
:105D0300047BB9E4FF1278E380357E047FDD127CE7
:105D1300EB802C7E047FE0127CEB7C047DE37A0431
:105D23007BB9E4FF1278E380167E047FED127CEBEF
:105D3300800D7C047DF07A047BB9E4FF1278E37C68
:105D4300047DCD7F2D7E001276AC9004FAEEF0A395
:105D5300EFF07B017A0479CD7D2F7C007F7C7E047C
:105D6300127A809004ACEFF060037F40227F002220
:103BA9008E318F327B017A0479A07D047C007F629B
:103BB9007E04127AE87B017A0479A47D047C007F73
:103BC9006A7E04127AE8AD32AC317F1E7E0012762D
:103BD900AC90049EEEF0A3EFF0E532241EFFE4352D
:103BE90031A807FC7D017B017A04799E7E007F0262
:103BF900121E709004A412215A7537007538207569
:103C0900390185313A85323B126E4090049CEFF0C0
:103C1900601D9004A412215A753700753820753932
:103C29000185313A85323B126E4090049CEFF09049
:103C3900049CE060037F20229004A412215A7B0196
:103C49007A0479A81268707B017A0479A87D047CCA
:103C5900007F6A7E04127A809004A412215AE4FB40
:103C6900FAED540FF9E4F89004A812215AE4FFFE82
:103C7900ED540FFDE4FCC312210F7003023D9AE4D9
:103C89007901F89004A812215A12207D90049DEF21
:103C9900F012785D90049CEFF060037F20227B0195
:103CA9007A0479A07D047C007F787E04127AE890FA
:103CB90004A812215AE4FFFEED540FFDE4FC900420
:103CC900A0122166C312210F6003023D9A9004A835
:103CD90012215AE4ED540FFDE42400FFE433FEED14
:103CE9003401FDE433FC9004A0122192E4FFFE7D2F
:103CF90006FC9004A0122166C312210F700A9004D9
:103D0900A012219E000000007B017A0479A07D04A5
:103D19007C007F787E04127A807B017A0479A07D09
:103D2900047C007F627E04127AE89004A812215A6A
:103D3900E4FFFEED540FFDE4FC9004A0122166C3DC
:103D490012210F704C9004A812215AE4ED540FFD72
:103D5900E42400FFE433FEED3401FDE433FC900478
:103D6900A0122192E4FFFE7D06FC9004A0122166B8
:103D7900C312210F700A9004A012219E00000000B6
:103D89007B017A0479A07D047C007F627E04127A2B
:103D990080AF32AE31125C9390049CEFF06003E087
:053DA900FF227F002253
:103523008F2C8C2D8D2EE49004BCF0A3F0A3F0A37C
:10353300F07B017A0479B77D01FC7F09FE127AE8FA
:103543009004B7E0FF7C057D7C1278A19004B6EF70
:10355300F06003E0FF2278287C057D017B017A057A
:1035630079B87E007F12121E70783A7C057D017B4C
:10357300017A0579CA7E007F05121E70E52E241795
:10358300FFE4352DFAA9077B01783F7C057D017E99
:10359300007F03121E70E52E241AFFE4352DFAA9CD
:1035A300077B0178427C057D017E007F03121E703C
:1035B3007E007F2A7D007B017A0579451223C57B36
:1035C300017A0479C0126DBB786F7C057D017B01A4
:1035D3007A0479C37E007F02121E7078717C057DA8
:1035E300017B017A0479C07E007F03121E70A82E2E
:1035F300AC2D7D017B017A0579287E007F54121E54
:10360300707556017557057558427B017A05793FE8
:103613001270C6EFB402037F64227C057D3F7A05F6
:103623007B42753401753505753624753701753858
:10363300047539B8AF2C122CDA9004B6EFF0605948
:1036430078C07C047D017B017A05793F7E007F038E
:10365300121E7078C37C047D017B017A0579427E5A
:10366300007F03121E707B017A0479C07D067F639D
:10367300126C0D7B017A0479C07F01123762EF70FF
:1036830002FF2278457C057D017B017A0479C87E9F
:10369300007F2A121E7002374CE49004BAF0A3F0A4
:1036A3009004B8E0FCA3E0FDA3E0FEA3E0FFC39D0C
:1036B300EE9C400302374CE4FCFD7B2FFAF9F81231
:1036C3001FF2900524122166121FD7753E2F753FF6
:1036D300017540057541DD124C489004B6EFF0705A
:1036E3005B7C057D457A057BE07F031277877C054C
:1036F3007D487A057BE37F011278E37C057D527A6E
:10370300057BED7F031277877C057D557A057BF07A
:103713007F031277877C057D587A057BF37F01123F
:1037230078E37C057D627A057BFD7F031277877CD6
:10373300057D657A067B007F011278E39004BAE485
:1037430075F001121F770236A3A82EAC2D7D017BE5
:0F375300017A0579287E007F54121E707F0022B4
:1063C0008F2F8E2E8D2D8C2CE52F2454FFE4352E0F
:1063D000FEE4352DFDE4352CFC7BFF7AFF79077850
:1063E00000C312210F50037F1922AA30A9317B016B
:1063F00078117C057D017E007F54121E70AA30A9A1
:10640000317B0178B67C047D017E007F4C121E70CA
:106410007A047BB67D517F571275B2900510EFF06C
:10642000600F7E007F087D007B017A0479B912231A
:10643000C5785D7C057D017B017A0479B97E007F9A
:1064400008121E70AF2FAE2EAD2DAC2C75560075F8
:106450005754755805755911125F23900510EFF0C8
:1064600060037F1922A831AC307D017B017A057968
:0B647000117E007F54121E707F00227E
:10589F008F2F8E2E8D2D8C2C7B017A0579407D01DB
:1058AF007C007FDE7E04127AE8900540E060030200
:1058BF00595A90053FF07A047BB67D057F5212440A
:1058CF002390053FEFF070727C047DB97F80FE124C
:1058DF0076AC90053DEEF0A3EFF078397C057D01B5
:1058EF007B017A05793D7E007F02121E707B017A63
:1058FF000479B97D827C007FDF7E04127A80900567
:10590F003FEFF060037F40229005407401F0FB7A77
:10591F00057940FD7C007FDE7E04127A8090053F82
:10592F00EFF060037F40227B017A0479B67D827CA1
:10593F00007FDF7E04127AE8803F7E007F827D0049
:10594F007B017A0479B61223C5802E7B017A047904
:10595F00B67D827C007FDF7E04127AE87C047DB600
:10596F007F827E001276F6EF600F7E007F827D00D1
:10597F007B017A0479B61223C5AF2FAE2EAD2DACB5
:10598F002C7556007557807558047559B6125F23DC
:0D599F0090053FEFF060037F19227F00228A
:1042A6008F2E8E2D8D2C8C2B7B017A0479947D029A
:1042B6007C007F0A7E00127AE8900491EFF060039A
:1042C6007F4022E4900498F0A3F0900493F09004C9
:1042D60091F0900496F0A3F0900494E0FCA3E0FD26
:1042E600A3E0FEA3E0FFC39DEE9C40030243C8E4A7
:1042F600FCFD7B2DFAF9F8121FF2EF252EFFEE35A5
:104306002DFEED352CFDEC352BFC90049A122192F6
:1043160090049A12215AEF242FFFE43EFEE43DFD5D
:10432600E43CFC7BFF7AFF79077800C312210F502B
:10433600030243C8900496E0FEA3E0FFE4FCFD7B85
:104346002FFAF9F8121FF2E42FFFE43EFEED3406D1
:10435600FDE43CFC753E2F753F0175400475419E9A
:10436600124C48900491EFF0704B90049A12215A27
:1043760075560075572D75580475599E125F239012
:104386000491EFF060037F1922E4900492F0900408
:1043960092E0FFC3942D501D749E2FF582E43404E1
:1043A600F583E0FF900498E48FF0121F7790049253
:1043B600E004F080D9900496E475F001121F7702AC
:1043C60042DE900498E0900492F090049FF09004EE
:1043D60099E090049EF0AE33AF34EE3395E0FDFCE9
:1043E60075560075570275580475599E125F2390CD
:1043F6000491EFF060037F19228532518531508593
:10440600304F852F4E900494E0FEA3E0FF127B4CC4
:0D441600900491EFF06003E0FF227F002290
:107BDA007B017A0679B27D017C007F087E00127AE9
:107BEA00E89006B2E024FD600D14600724037009D2
:0C7BFA007F01227F04227F03227F0222F1
:10730E008B288A29892A3095037F1222753A0075B7
:10731E003B02753C05753D777F007E017D007C004C
:10732E00126532A82AAC29AD287B017A0579777EC1
:10733E00007F01121E70AB28AA29A92A121E96FEE2
:10734E00B431037F0022EEB432037F002290057821
:10735E00E0643360037F1422121E9624CE60042450
:09736E000270037F00227F34222B
:102FE4008F268D277B017A04793B12730E90043A65
:102FF400EFF06003E0FF22E490043DF0F53A753B06
:1030040001753C04753D4A7F907E01FDFC126532DA
:1030140090043BE0FBB4300C90044612219E000067
:10302400044C8013EBB4320C90044612219E000031
:10303400044E80037F0022900448E0FEA3E0FF7B5F
:10304400017A04794B7D017C00127AE890044AE00D
:10305400FEA3E0FDD39E40037F1322EED39D400EDA
:1030640090043D7401F090044AE090043CF07B012C
:103074007A0479397D017C007F097E00127AE89018
:103084000439E0FF7C047DB81278A190043AEFF093
:103094006003E0FF22753A00753B5E753C05753DA3
:1030A400197F007E007D007C0012653278F47C0478
:1030B4007D017B017A0579557E007F121223A1EFF1
:1030C40060037F1B2290043BE06430703D78067CF3
:1030D400057D017B017A057967FE7F051223A1EF47
:1030E40060037F1D22780B7C057D017B017A0579C5
:1030F4006C7E007F051223A1EF60037F1C229004E5
:103104003E12219E00000200805590043BE0643290
:10311400704D78B87C047D017B017A057919FE7FB6
:103124003C1223A1EF60037F6622752F01753004E2
:1031340075313E7B017A04794212533B90043AEF95
:10314400F06003E0FF2290043E12215AEF240AFFAC
:10315400E43EFEE43DFDE43CFC90043E12219290EA
:10316400043BE06430600302326C78B87C047D0177
:103174007B017A057919FE7F3C1223A1EF700F9031
:103184000576E0FF900516E06F700302326CE527C8
:10319400640960030232507B017A0479397D01FCB1
:1031A4007F09FE127AE87B017A0479AE126DBB784E
:1031B400137C057D017B017A0479AE7E007F0312C6
:1031C4001E70900439E0FF7C047DB81274A590044D
:1031D4003AEFF06003E0FF22900439E004F078B89D
:1031E4007C047D017B017A0579197E007F3C121EE7
:1031F40070900576E0900516F07E007F037DFF7BDE
:10320400017A0579131223C578107C057D017B01B1
:103214007A0479AE7E007F03121E70900439E0FFB9
:103224007C047DB81274A590043AEFF06003E0FFCB
:10323400227B017A0479397D017C007F097E0012AA
:103244007A8090043AEFF0601F7F402278B87C04C3
:103254007D017B017A0579197E007F3C1223A1EF61
:1032640060037F66227F672290043DE0B4011F90D3
:103274000448E0FEA3E0FF7B017A04793C7D017CF5
:1032840000127A8090043AEFF060037F4022E52632
:10329400B4071C90043E12215A752C04752D4A75EE
:1032A4002E0112521E90043AEFF06003E0FF227FD9
:0232B4000022F6
:106F49007A047B677D057F59124423900466EFF02C
:106F59006003E0FF22127960900466EFF06003E0BD
:106F6900FF22127BDA900465EFF064036005E064A8
:106F790004704B7A047B677D057F581244237B019B
:106F89007A0479657D017C007F097E00127AE89098
:106F99000465E0FF7C047D761278A1900466EFF029
:106FA9006003E0FF22786A7C047D017B017A047921
:106FB900C97E007F051223A1EF60037F0C227F00A9
:016FC90022A5
:106A48007B017A047965126DBB7B017A0479687DD4
:106A5800037C007F4F7E04127AE87556017557044F
:106A68007558687B017A0479651270C690046EEFD8
:106A7800F0E4A3F0127BDA90046CEFF0B4032690F4
:106A8800046EE06402704990046D7404F07B017A2E
:106A980004796D7D017C007F087E00127A80900465
:106AA8006FEFF0802B90046CE0B4042490046EE047
:106AB8006402601C90046D7403F07B017A04796DA4
:106AC8007D017C007F087E00127A8090046FEFF0D1
:0C6AD80090046FE060037F40227F0022EA
:10533B008B2C8A2D892E753A00753B05753C0575AE
:10534B003D817F4E7E007D007C001265327B017AB1
:10535B0005797D753A05753B817D051263049005D2
:10536B007D12215AAB2CAA2DA92E1221407B017A3A
:10537B000579777D017C007F097E00127AE8900524
:10538B0077E0FF7C057D8B1278A1900578EFF060BC
:10539B0003E0FF22E4900577F090057912219E003F
:1053AB0000000090057D12215A900579122166C3E9
:1053BB0012210F5060E47F0C7E01FDFC90057912E9
:1053CB002166121FF2E42FFFEE3402FEE43DFDE4F2
:1053DB003CFC753A00753B05753C05753D811265C6
:1053EB003278817C057D017B017A0579D97E007F3E
:1053FB00051223A1EF700790057704F08017900535
:10540B007912215AE47B01FAF9F8121FD79005792A
:10541B00122192808E900577E070037F1822E47F33
:10542B000C7E01FDFC900579122166121FF2E42F10
:10543B00FFEE3402FEE43DFDE43CFCAB2FAA30A9A9
:07544B00311221407F002215
:10773F008E2F8F307E007F807DFF7B017A06797DD3
:10774F001223C5AE2FAF30EE3395E0FDFC753A0036
:10775F00753B80753C05753DFB12653278FB7C05EA
:10776F007D017B017A06797D7E007F801223A1EF58
:08777F0060037F01227F00225C
:10521E008F2B8E2A8D298C2812773FEF7003025325
:10522E0029AF2BAE2AAD29AC28753A00753B807597
:10523E003C05753D791265327A057B797D857F5106
:10524E00124423900578EFF06003E0FF227B017A91
:10525E0005797C7D037C007F4F7E04127A80900559
:10526E0078EFF060037F4022AA2CA92D7B017D03ED
:10527E007C007F4F7E04127AE8E4900577F07B0184
:10528E007A0579777D01FC7FDE7E04127A809005A7
:10529E0078EFF060037F40227B017A0579797D03F8
:1052AE007C007FD67E04127AE87B017A0579797DBF
:1052BE00037C007FD07E04127A807E007F037D0007
:1052CE007B017A0579791223C57B017A0579797D7F
:1052DE00037C007FD37E04127A807E007F807DFF68
:1052EE007B017A0579791223C5AF2BAE2AAD29AC95
:1052FE0028755600755780755805755979125F23B4
:10530E00900578EFF060037F1922E52E601C127471
:10531E0043900578EFF06012E0FF227E007F037D60
:0D532E00FF7B017A0579791223C57F0022EB
:107501007B017A04793B7D037C007FD37E04127A70
:10751100E87B017A04793A7D017C007FDE7E0412EA
:107521007AE890043AE0600690043CE070297E0419
:107531007F4512690E7B017A04793B126DBB75564A
:107541000175570475583B7B017A0479451270C661
:0A755100EFB401037F6C227F0022DB
:10690E008E298F2A7B017A0479517D047C007F6267
:10691E007E04127AE87B017A0479557D047C007F2F
:10692E006A7E04127AE890045512215A8F4C8E4BCF
:10693E008D4A8C49754D01754E04754F4F9004511B
:10694E0012215A12545290044FE07002A3E07010BC
:10695E00FE7F03FDAA29A92A7B011223C57F0022EF
:10696E0090045512215A7B017A047959126FCA90FC
:10697E00045912215A7550007551207552017553E4
:10698E000475545D126EC5A82AAC297D017B017A6F
:0D699E0004795D7E007F03121E707F0022D1
:1071B9008D268A278B28EF24CF604D14602724025F
:1071C9007054E5266405600D127501900439EFF0DD
:1071D9006003E0FF22AD28AC27AF26124FD39004FD
:1071E90039EFF08034E5266405600D1275019004CD
:1071F90039EFF06003E0FF22AD28AC27AF26123942
:1072090093900439EFF08011AF28AE27124EA99060
:107219000439EFF080037F1122900439E0FF600107
:04722900227F00229E
:104EA9008E298F2A7B017A04793B7D027C007F0A57
:104EB9007E00127AE890043BE07002A3E070037F61
:104EC9003222E50A704B753E03753F017540047542
:104ED9004154FFFE7D06FC124C4890043CE024FF3F
:104EE900FF90043BE034FFFEE4FCFD7B2FFAF9F868
:104EF900121FF2E42FFFE43EFEED3406FDE43CFC14
:104F0900753E03753F01754004754157124C488041
:104F190052755000755103755201755304755454F7
:104F29007F007E007D067C00126EC590043CE02463
:104F3900FFFF90043BE034FFFEE4FCFD7B2FFAF910
:104F4900F8121FF2E42FFFE43EFEED3406FDE43CC7
:104F5900FC7550007551037552017553047554570A
:104F6900126EC57C047D3D7F3112352390043AEFE2
:104F7900F06003E0FF2275300475313D7F007E0348
:104F89007D007C001263C090043AEFF06003E0FFFB
:104F990022E4F532753130F530F52F75333075343B
:104FA900107F207E30FDFC1242A690043AEFF0609B
:104FB90003E0FF22A82AAC297D017B017A04793D0F
:0A4FC9007E007F54121E707F00224C
:104FD3008C298D2A7550017551047552567B017ABF
:104FE30004795312567B90043BEFF06003E0FF22F9
:104FF3007C047D3C7F3012352390043BEFF060034B
:10500300E0FF2275300475313C7F007E037D007C18
:10501300001263C090043BEFF06003E0FF227E04C4
:105023007F56E4753120753030F52FF52EF5357543
:105033003430F533F532753910753830F537F536C8
:1050430012704A90043BEFF06003E0FF227E007F82
:105053000A7D007B017A0479901223C578047C0EC3
:105063007D017B017A0479907E007F0A1223A1EFF0
:1050730060287C047D6C7A0E7B047F011278E375D3
:10508300300475313C7F007E037D007C001263C0D9
:1050930090043BEFF06003E0FF227F007E047D007D
:1050A3007C0012589F90043BEFF06003E0FF227EE8
:1050B300047F5612765A90043BEFF060037F402240
:1050C300900459E0701CA3E07018A3E070149004DE
:1050D3003AF07B017A04793A7D01FC7FDE7E04128B
:1050E3007A80A82AAC297D017B017A04793C7E0071
:0850F3007F54121E707F0022A1
:103993008F298C2A8D2B752F017530047531547B3B
:1039A300017A04793C12533B90043BEFF06003E04F
:1039B300FF2290045412215A8F338E328D318C3072
:1039C30075340475354090043C12215A1241157523
:1039D300500175510475527C7B017A047979AF29C2
:1039E30012567B90043BEFF06003E0FF227C047DE2
:1039F300627F3212352390043BEFF06003E0FF2235
:103A030090044012215AEF2454FFE43EFEE43DFDAE
:103A1300E43CFC90044812219290045412215AEF82
:103A2300240AFFEE3401FEE43DFDE43CFC90045027
:103A330012219290045412215AEF2408FFE43EFE0F
:103A4300E43DFDE43CFC90044412219290045412A2
:103A5300215AEF248AFFE43EFEE43DFDE43CFC9062
:103A6300044C12219290044012215A75300475318E
:103A7300621263C090043BEFF06003E0FF227E0418
:103A83007F7CC006C00790044812215A8F318E30C4
:103A93008D2F8C2E90044412215A8F358E348D3302
:103AA3008C3290045012215A8F398E388D378C36D0
:103AB300D007D00612704A90043BEFF06003E0FF9A
:103AC300227E007F0A7D007B017A0479581223C588
:103AD30078047C0E7D017B017A0479587E007F0A8D
:103AE3001223A1EF60267C047D927A0E7B047F0172
:103AF3001278E390044012215A7530047531621232
:103B030063C090043BEFF06003E0FF2290044C128B
:103B1300215A12589F90043BEFF06003E0FF227E8E
:103B2300047F7C12765A90043BEFF060037F4022BF
:103B330090044012215A755903755A04755B581243
:103B4300668D90045412215AEF2405FFE43EFEE4EF
:103B53003DFDE43CFC7556007557037558047559D3
:103B630058125F2390043BEFF060037F1922A82BC8
:103B7300AC2A7D017B017A0479627E007F54121E98
:103B83007090047FE0701CA3E07018A3E0701490A1
:103B9300043AF07B017A04793A7D01FC7FDE7E04EE
:063BA300127A807F00226F
:106AE4008F298E288D278C26AF2C7E007DFF7B017D
:106AF4007A05790C1223C5E50A60037F3022E490FD
:106B040004D8F0A3F09004D8E0FEA3E0FFC3952BD3
:106B1400EE952A505DE4FCFDF8F9AA06AB07AF2C0C
:106B2400FE121FF2EF2529FFEE3528FEED3527FD75
:106B3400EC3526FC852C467547017548047549DA01
:106B44001273779004D7EFF060037F3022AF2C7E6E
:106B540000780C7C057D017B017A0479DA1223A18B
:106B6400EF60037F31229004D8E475F001121F779F
:056B740080937F002268
:1050FB00E50A60037F332290043A742FF09004D3B7
:10510B0012219E0000000090043AE0FF7E007DFF1C
:10511B007B017A04796F1223C5E490043BF0A3F072
:10512B00C390043CE094F490043BE09401400302F0
:10513B00521B9004D3122166C000C001C002C003F1
:10514B0090043BE0FEA3E0FFE4FCFDF8F9AA06ABFC
:10515B000790043AE0FFE4FE121FF2D003D002D016
:10516B0001D000121FD79004D312219290043AE081
:10517B00FFE4FCFDFEC374FF9FFF74FF9400FE74FD
:10518B00079400FDE49400FC9004D3122166D31223
:10519B00210F40037F31229004D312215A754632DE
:1051AB0075470175480475493D127377900439EFC3
:1051BB00F060037F302290043AE0FF7E00786F7C32
:1051CB00047D017B017A04793D1223A1EF703490A9
:1051DB0004D312215A752A00752B0A90043AE0F574
:1051EB002C126AE4EF701C7B017A0479D37D04FCEA
:1051FB007F10FE127A80900439EFF060037F40221B
:10520B007F002290043BE475F001121F7702512BB3
:03521B007F3122BE
:105E4D008E268F278C288D2990043A7401F0FB7AC9
:105E5D0004793B7D027C007F0A7E00127AE8900473
:105E6D0039EFF060037F402290043BE0FEA3E0FF9A
:105E7D004E7003025F11EF24FFFFEE34FFA3F0A37A
:105E8D00EFF090043DE0FEA3E0FFE4FCFD7B2FFA74
:105E9D00F9F8121FF2E42FFFE43EFEED3406FDE4A7
:105EAD003CFC753E2F753F01852840852941124CDC
:105EBD0048900439EFF060037F2022AA26A9277BA2
:105ECD0001A829AC287D017E007F031223A1EF706C
:105EDD0002FF2290043DE07002A3E06027AA26A9EC
:105EED00277B01C0038B56852857852958D003126F
:105EFD0070C6EF6402600D90043D74FFF5F0121F43
:105F0D0077025E8F7E007F2F7D00AA28A9297B0155
:065F1D001223C57F0022E3
:103F6F003095037F1222753A00753B5E753C0475E0
:103F7F003D597F007E007D007C0012653278B77C52
:103F8F00047D017B017A0479597E007F3C121E70FB
:103F9F0078F37C047D017B017A0479957E007F1292
:103FAF00121E7078057C057D017B017A0479A77E4E
:103FBF00007F05121E70780A7C057D017B017A0453
:103FCF0079AC7E007F05121E707B017A04793B125B
:103FDF006DBB780F7C057D017B017A04793B7E00F8
:103FEF007F03121E707E007F037DFF7B017A0579B0
:103FFF00121223C59004B6E0900515F07C047DB72E
:10400F007F5F7E001276AC900516EEF0A3EFF07B8B
:10401F00017A0479397D017C007F097E00127AE8EC
:10402F00900439E004FF7C047DB71274A590043A24
:10403F00EFF060037F40227A047B3B7D057F5812AF
:10404F00442390043AEFF06003E0FF227B017A04EF
:10405F0079397D017C007F097E00127AE89004395E
:10406F00E004FF7C047DB71278A190043AEFF06072
:10407F00037F4022783E7C047D017B017A05790A1B
:10408F007E007F051223A1EF60037F1C227B017A44
:10409F000479B17D057C007FD97E04127A80753A50
:1040AF0000753B01753C04753D3B7F907E017D00A3
:1040BF007C001265327B017A04793B7D017C007FA5
:1040CF004C7E04127A80E490043BF07B017A0479F1
:1040DF003B7D01FC7F4E7E04127A80753A00753B62
:1040EF0001753C04753D3B7F007E017D007C001215
:1040FF0065327B017A04793B7D017C007F527E041F
:06410F00127A807F0022FD
:1074A5008F288C298D2A7F5F7E001276AC90057817
:1074B500EEF0A3EFF0E52A245FFFE43529A807FCE9
:1074C5007D017B017A0579787E007F02121E70E5C9
:1074D5002824FFFFE434FFFE7C007D61121F10EFBE
:1074E500241EFFE43EFEAA29A92A7B01127A809078
:0C74F5000577EFF060037F40227F00224B
:1078A1008C338D34EF24FFFFE434FFFE7C007D61D7
:1078B100121F10EF241EFFE43EFEAA33A9347B0100
:1078C100127AE890060CEFF0AD34AC337F617E00A4
:1078D1001276F6EF700690060CE060037F40227F7F
:0278E100002283
:1072A1007B017A0479397D017C007F097E00127AA5
:1072B100E8900439E0FED3940940037F6B22AF06C6
:1072C1007C047D451278A190043AEFF06003E0FF61
:1072D100227B017A04793B126DBB75560175570407
:1072E1007558A07B017A04793B1270C690043AEF7D
:1072F100F064016003E070037F55227F011267D0C3
:0D73010090043AEFF06003E0FF227F0022CD
:1049C5008E3A8F3B8B3C8A3D893E7B017A0479ED9B
:1049D5007D047C007F627E04127AE87B017A04798B
:1049E500F17D047C007F6A7E04127AE89004ED1262
:1049F500215AAB3CAA3DA93E1221409004ED12215B
:104A05005AAB3FAA40A9411221409004F112215A04
:104A15008F4C8E4B8D4A8C49754D01754E04754FE3
:104A2500C39004ED12215A1254529004F112215AE6
:104A35007B017A0479F5126FCAE49004C1F0A3F002
:104A45009004C3E0FEA3E0FFC39004C2E09F90047E
:104A5500C1E09E4003024B009004F512215A7550A7
:104A6500007551037552017553047554C5126EC511
:104A7500A83BAC3A7D017B017A0479C57E007F03B2
:104A85001223A1EF601AAA3AA93B7B01C0038B56FA
:104A95007557047558C5D0031270C6EF640270339C
:104AA5009004F512215AAB3FAA40A941126870AB98
:104AB5003FAA40A9411221208F4C8E4B8D4A8C492B
:104AC50085424D85434E85444F9004ED12215A127F
:104AD5005452229004F512215A7B017A0479F91275
:104AE5006FCA9004F912215A9004F512219290048C
:104AF500C1E475F001121F77024A45AB42AA43A9EA
:084B050044E4F5F0121FB82290
:10249D008F3D8E3C8D3B8C3AE49004C5F0AE3EAF43
:1024AD003FFCFD7B20FAF9F8121FF2EF2543FFEEFA
:1024BD003542FEED3541FDEC3540FC7BFF7A3F7931
:1024CD00087800C312210F50037F1922AF3DAE3C97
:1024DD00AD3BAC3A900692122192E49004C4F09078
:1024ED0004C1F09004C6F0A3F09004CAF0A3F0FE6E
:1024FD007F0AFD7B017A0E79041223C57E007F0AC7
:10250D007D007B017A0E790E1223C57E007F097D39
:10251D00007B017A0579F81223C5E49004C8F0A375
:10252D00F0C39004C9E0953F9004C8E0953E400388
:10253D0002283A90069212215A7550007551207555
:10254D005201755306755472126EC57C067D727FED
:10255D00207E001276F6EF60189004C4E004F0E0DF
:10256D00D3940A400302283A9004C5E004F00228EF
:10257D002D900687E0B40216787E7C067D017B01E6
:10258D007A0579F87E007F091223A1EF602E90065F
:10259D0087E0FFB40409900672E0C39404401DEF78
:1025AD00640460030226FD900672E0640460030279
:1025BD0026FDA3E0C3940640030226FD9006921269
:1025CD00215A7B017A06799E126FCA90069E1221BE
:1025DD005A75500075512075520175530675545238
:1025ED00126EC578557C067D017B017A0679757E64
:1025FD00007F091223A1EF703F900667E0703978D4
:10260D007E7C067D017B017A06795EFE7F09121EB6
:10261D0070900687E0B402107C0E7D047A067B5E16
:10262D00E4FF1278E30226FD7C0E7D0E7A067B7E9A
:10263D00E4FF1278E30226FDAF3DAE3CAD3BAC3A74
:10264D0090069E122166C312210F60030226DF78C9
:10265D00207C067D017B017A067975FE7F09121EAD
:10266D0070E4900629F0127DFC7B017A0679207DBD
:10267D000A7F61126C0D7B017A0679207F0112377A
:10268D0062EF606C787E7C067D017B017A06793184
:10269D007E007F09121E70785E7C067D017B017ABB
:1026AD000679317E007F09121E70900687E0B40214
:1026BD000F7C0E7D047A067B5EE4FF1278E3800DBD
:1026CD007C0E7D0E7A067B7EE4FF1278E3127DF69A
:1026DD00801E90069E12215A7B017A0679A2126FF6
:1026ED00CA9006A212215A90069E1221920225D856
:1026FD009004C1E075F01EA424CCF9740435F0A843
:10270D0001FC7D017B017A0679727E007F1E121E0F
:10271D0070E49004C4F09004C1E004F0E06408603B
:10272D0019E53F24FFFFE53E34FFFE9004C8E06E3F
:10273D007003A3E06F60030228129004C8E0FEA3AB
:10274D00E07803CEC313CE13D8F9FFE4FCFD7BF084
:10275D00FAF9F8121FF2EF2543FFEE3542FEED3583
:10276D0041FDEC3540FC90069A1221929004C1E097
:10277D0075F01EA4FFAEF0E4FCFD90069A122166E2
:10278D00121FD77BFF7AFF79077800C312210F50F4
:10279D000302283A9004C1E075F01EA485F056F5A9
:1027AD00577558047559CC90069A12215A125F2309
:1027BD009004C3EFF060037F1922E49004C2F090FF
:1027CD0004C1E0FD75F01EA4FFA3E0FCC39FE5F07E
:1027DD006480F8748098501D74CC2CF582E4340418
:1027ED00F583E0FF9004C6E48FF0121F779004C2CA
:1027FD00E004F080CAEDFF9004CAE48FF0121F7759
:10280D00E49004C1F090069212215A7B017A067968
:10281D009612687090069612215A90069212219285
:10282D009004C8E475F001121F7702252E9004C4A0
:10283D00E0D3940A5003022929E49004CAF0A3F0CE
:10284D009004C6F0A3F07550017551057552FB7BD0
:10285D00017A0579F8FF12567B7B017A0579F87DAF
:10286D00067F64126C0D7B017A0479CC7F011237DF
:10287D0062EF70030229299004CAE0FEA3E0FFE491
:10288D00FCFD7B1EFAF9F8121FF2EF2543FFEE3522
:10289D0042FEED3541FDEC3540FC90069A12219239
:1028AD0090069A12215AEF241EFFE43EFEE43DFDF0
:1028BD00E43CFC7BFF7AFF79077800C312210F40BF
:1028CD005B90069A12215A75560075571E7558045D
:1028DD007559D1125F239004C3EFF060037F192265
:1028ED009004C2E024CCF582E43404F583E0FF903B
:1028FD0004C6E48FF0121F779004CAE475F001123C
:10290D001F779004CEE07004A3E060107B017A0481
:10291D0079CE7D027F02124B0D0228739004C6E022
:10292D009004CDF09004C7E09004CCF0AF4BAE4ACC
:10293D00AD49AC487556007557027558047559CC9C
:10294D00125F239004C3EFF060037F192285475176
:10295D0085465085454F85444E9004CAE0FEA3E060
:10296D00FF127B4C9004C3EFF060037F19227F00B0
:01297D002237
:104115008F2F8E2E8D2D8C2C853582853483122103
:104125009E000000007E007F057D007B017A0479FA
:10413500C01223C59004B812219E00000000AF2FC5
:10414500AE2EAD2DAC2C9004B8122166C312210FF2
:1041550040030241F4E47F0C7E01FDFC9004B8129B
:104165002166121FF2E42FFFEE3402FEE43DFDE46A
:104175003CFC9004BC122192AF33AE32AD31AC3071
:104185009004BC122166C312210F604B9004BC122F
:10419500215AEF2405FFE43EFEE43DFDE43CFC75B9
:1041A5003A00753B05753C04753DCA126532755676
:1041B500017557047558C07B017A0479CA1270C617
:1041C500EFB4021378C07C047D017B017A0479CABF
:1041D5007E007F05121E709004B812215AE47B01FF
:1041E500FAF9F8121FD79004B81221920241437BC5
:1041F500017A0479BC753A04753BC07D03126304EA
:10420500E4FFFEFDFC9004BC122166C312210F7071
:10421500267F0C7E01FDFCAB2FAA2EA92DA82C1202
:104225001FF2E42FFFEE3402FEE43DFDE43CFC907A
:1042350004BC122192805A9004C4E09004CAF09004
:1042450004C3E09004CBF078B67C047D017B017A51
:104255000479CA7E007F02121E709004B6E0FEA3A8
:10426500E0FFE4FCFD7B1EFAF9F8121FF2A804A991
:1042750005AA06AB079004BC12215AEF2454FFE4AB
:104285003EFEE43DFDE43CFC121FD79004BC122128
:10429500929004BC12215A8535828534831221926D
:0142A50022F6
:10765A008E2C8F2D7B017A0479B67D037C007FD333
:10766A007E04127AE89004B8E07034AA2CA92D7B23
:10767A00017D03FC7FD37E04127A809004C0EFF070
:10768A0060037F40227B017A0479B6126DBB7B01CD
:10769A007A0479B67D037C007FD67E04127A807FD5
:0276AA000022BC
:10567B008F4C8B4D8A4E894F7D037C007FD07E04EF
:10568B00127AE8127BDA9006A7EFF0E54C6405700E
:10569B004EE0640160497B017A0679A8126DBB7BF1
:1056AB00017A0679A87D037C007FD37E04127A8071
:1056BB00A852AC51AD507B017A0679A87E007F03CE
:1056CB00121E70855056855157855258AB4DAA4EB8
:1056DB00A94F1270C6EFB402037F64227F002290A1
:1056EB0006A7E0640160357B017A0679A67D017C13
:1056FB00007FDE7E04127AE89006A6E0701EFE7F25
:10570B0003FD7B017A0679A81223C57B017A067902
:10571B00A87D037C007FD37E04127A807B017A06FE
:10572B0079A87D037C007FD37E04127AE87556013D
:10573B007557067558A8AB4DAA4EA94F1270C6EFF8
:10574B00B402107B017A0679A8126DBB7E067FA886
:10575B00124714A852AC51AD507B017A0679A87E42
:10576B00007F03121E70855056855157855258ABDA
:10577B004DAA4EA94F1270C6EFB402037F64227F6D
:02578B000022FA
:102CDA008F2F8C308D318A328B337B017A06790DB6
:102CEA007D027C007F0A7E00127AE8AB34AA35A9FD
:102CFA00361221CF00060000AB37AA38A939E4F50D
:102D0A00F0121FB8E52FB4311690060DE0FFA3E0CC
:102D1A00AB37AA38A939CF8FF0121FB8022FE17545
:102D2A003E03753F017540067541157F007E007DA3
:102D3A00067C00124C4890060CEFF060037F3022AC
:102D4A007556018532578533587B017A06791512F3
:102D5A0070C6EFB4020FAB37AA38A939E4F5F012FE
:102D6A001FB87F002290060EE024FFFF90060DE0B8
:102D7A0034FFFEE4FCFD7B2FFAF9F8121FF2E42F70
:102D8A00FFE43EFEED3406FDE43CFC753E03753F70
:102D9A0001754006754115124C4890060CEFF0601B
:102DAA00037F3022AA30A9317B01C0038B567557A5
:102DBA0006755815D0031270C6EFB4020FAB37AAC6
:102DCA0038A939E4F5F0121FB87F002290060EE008
:102DDA0024FFFE90060DE034FF90060FF0A3CEF01C
:102DEA0090060FE0FEA3E0FFE4FCFD7B2FFAF9F862
:102DFA00121FF2E42FFFE43EFEED3406FDE43CFC34
:102E0A0090061112219290061112215A753E0375ED
:102E1A003F01754006754115124C4890060CEFF0BB
:102E2A0060037F30227556018530578531587B0102
:102E3A007A0679151270C6EFB401129006111221A2
:102E4A005AAB34AA35A936122140022F16755601FB
:102E5A008530578531587B017A0679151270C6EF8D
:102E6A00706390061112215AEF242FFFE43EFEE40C
:102E7A003DFDE43CFC753E03753F01754006754116
:102E8A0015124C4890060CEFF060037F30227556FD
:102E9A00018532578533587B017A0679151270C637
:102EAA00EFB402037F002290061112215AEF242F59
:102EBA00FFE43EFEE43DFDE43CFCAB34AA35A93612
:102ECA00122140804790061112215AAB34AA35A923
:102EDA0036122140E4FFFE7D06FC9006111221669F
:102EEA00C312210F70197556018532578533587BE5
:102EFA00017A0679151270C6EFB402107F0022908B
:102F0A00060F74FFF5F0121F77022DEA90060EE005
:102F1A0024FFFE90060DE034FF90060FF0A3CEF0DA
:102F2A0090060FE0FEA3E0FFE4FCFD7B2FFAF9F820
:102F3A00121FF2E42FFFE43EFEED3406FDE43CFCF2
:102F4A0090061112219290061112215A753E0375AC
:102F5A003F01754006754115124C4890060CEFF07A
:102F6A0060037F30227556018532578533587B01BD
:102F7A007A0679151270C6EFB40230AB34AA35A9B5
:102F8A0036122120900611122166C312210F700EEB
:102F9A00AB37AA38A939F5F0121FB87F002290067C
:102FAA000F74FFF5F0121F77022F2AAB34AA35A946
:102FBA003612217290061112215A121FE4E47B2F55
:102FCA00FAF9F812207DEF2401FFE43EAB37AA3864
:0A2FDA00A9398FF0121FB87F002202
:103DAE008F268C278D288A298B2A126F4990043AE8
:103DBE00EFF06003E0FF22E4FF12486E90043AEF4A
:103DCE00F06003E0FF22126A48127BDA900439EFAA
:103DDE00F064036023E0FFB40106A37452F0801276
:103DEE00EFB4040890043A7453F0800690043A74C9
:103DFE0054F090043AE0FF227B017A04793B7D0374
:103E0E007C007F7C7E04127AE890043BE07016A35F
:103E1E00E07012A3E0700E12624690043AEFF0B416
:103E2E0031037F31227B017A047945126DBBAA27BB
:103E3E00A9287B0178487C047D017E007F09121E33
:103E4E0070AA29A92A7B0178517C047D017E007F0E
:103E5E0009121E7090045AE526F07E007F087D0040
:103E6E007B017A04795B1223C5E526146028146061
:103E7E005014607524FE7003023F4824056003024F
:103E8E003F597E047F4512647B90043AEFF0700335
:103E9E00023F59E0FF227E047F457C047D487B0172
:103EAE001232B690043AEFF06003E0FF227E047FF8
:103EBE0045123BA990043AEFF07003023F59E0FF20
:103ECE00227E047F457C047D487B021232B690042C
:103EDE003AEFF06003E0FF227E047F45123BA9908B
:103EEE00043AEFF06065E0FF227E047F457C047D9E
:103EFE00487B031232B690043AEFF06003E0FF22E3
:103F0E007E047F45123BA990043AEFF07024AA2B51
:103F1E00A92C7B0178517C047D01FE7F09121E7055
:103F2E0090045A7404F07E047F45123BA990043A23
:103F3E00EFF090043AE0FF6012227E047F45125C9F
:103F4E009390043AEFF06003E0FF22A82EAC2D7D93
:103F5E00017B017A0479457E007F1E121E707F0060
:013F6E002230
:105BAD008E318F32AA06A9077B0178317C057D01E4
:105BBD007E007F1E121E707B017A04799C7D017C14
:105BCD00007F097E00127AE890049CE0FF7C047D42
:105BDD00D01278A190049DEFF06003E0FF22789E33
:105BED007C047D017B017A05790C7E007F12121EEB
:105BFD007078B07C047D017B017A05791E7E007F73
:105C0D0005121E7078B57C047D017B017A0579340F
:105C1D007E007F09121E7078BE7C047D017B017AA7
:105C2D000579317E007F03121E7078C17C047D01E1
:105C3D007B017A05793D7E007F09121E707E007F03
:105C4D00047D007B017A0479CA1223C57A047B9EF8
:105C5D007D357F551275B2EF60037F072278477C43
:105C6D00057D017B017A0479A17E007F08121E70EB
:105C7D00A832AC317D017B017A0579317E007F1E22
:065C8D00121E707F0022D0
:10647B008E2F8F30AA06A9077B01787C7C047D01C7
:10648B007E007F1E121E707A047B687D057F501282
:10649B004423EF60037F072290046EE0700EA3E0AD
:1064AB00700AA3E0C3940250037F0D227E047F7C0D
:1064BB007C047D7FE4FB1232B6900465EFF0600341
:1064CB00E0FF227E047F7C125BAD900465EFF060F1
:1064DB0003E0FF227E047F7C123BA9900465EFF062
:1064EB006003E0FF227B017A0479667D027C007FEA
:1064FB000C7E00127AE8900466E475F001121F77A7
:10650B007B017A0479667D027C007F0C7E00127A17
:10651B0080A830AC2F7D017B017A04797C7E007FD3
:07652B001E121E707F00220A
:107A80008E538F548C558D568B578A58895912674F
:107A90002F900C83EFF060037F4022E42554FFE534
:107AA000533420FEAB57AA58A959AD56AC551267AE
:047AB0002F7F002202
:107AE8008E538F548C558D568B578A5889591261ED
:107AF80084EF601CE42554FFE5533420FEAB57AAFD
:107B080058A959AD56AC55126184EF60037F4022E5
:037B18007F0022C9
:107141008E568F578B588A59895AE55725E0F5573E
:10715100E55633F5567D087C00D3ED9400EC648050
:1071610094804053E55613F556E55713F557AB5840
:10717100AA59A95A121F8DFFE55665F0E5576F30E0
:10718100E01C121F8DFFE5F0C313FEEF13FFEE6449
:10719100A0FEEF6401FFEE8FF0121FB88012121FE4
:1071A1008DFFE5F0C313FEEF13FFEE8FF0121FB852
:0871B100ED1D70011C80A222FB
:1076AC008E508F51AE04AF058E548F55E4F508F50E
:1076BC0009F552F553C3E5539551E55295505025B4
:1076CC00855582855483E0FF7E007B007A00790823
:1076DC001271410555E555700205540553E553707B
:0A76EC0002055280D0AE08AF09225B
:1076F6008E4C8F4D8C4E8D4FE54D24FEFFE54C3460
:10770600FFFE1276AC9006A6EEF0A3EFF0AF4DE5C5
:107716004F254DFFE54E354CCF24FECF34FFFAA959
:10772600077B0178A67C067D017E007F021223A1DD
:09773600EF60037F01227F0022B5
:103762008F4C8B4D8A4E894F127D6BC298E4900626
:10377200A7F09006AB74FAF07E007F507D00AB4D4F
:10378200AA4EA94F1223C59006A7E0600302399200
:10379200E54C70030238AC127B1B9006A8EFF09048
:1037A20006ABE004F0EF644F6006E0D3940050E70C
:1037B2009006ABE07002FF229006A8E0AB4DAA4E45
:1037C200A94F121EDC9006A8E09006AAF0127B1BFD
:1037D2009006A8EFF0644B60037F00229006A8E0F9
:1037E200FFAB4DAA4EA94F900001121EEE9006AA01
:1037F200E02FF0127B1B9006A8EFF0E0FFAB4DAA82
:103802004EA94F900002121EEE9006AAE02FF0126F
:103812007B1B9006A8EFF0E0FFAB4DAA4EA94F909C
:103822000003121EEE9006AAE02FF0127B1B9006F8
:10383200A8EFF0AB4DAA4EA94F900004121EEE90D5
:1038420006AAE02FF0900004121EAF9006A6F0E048
:1038520024FAF0E49006A8F09006A6E0FF9006A8ED
:10386200E0C39F5030127B1B9006A9EFF0AB4DE5F1
:103872004F2405F9E4354EFA9006A8E07C0029F9B8
:10388200EC3AFAEF121EDC9006AAE02FF09006A89E
:10389200E004F080C3127B1B9006A8EFF09006AA0A
:1038A200E06F60037F00227F0122127B1B9006A83B
:1038B200EFF0B41BF5E0AB4DAA4EA94F121EDC90FF
:1038C20006AA741BF0127B1B9006A8EFF06410602E
:1038D200030237899006A8E0AB4DAA4EA94F90008B
:1038E20001121EEE900001121EAFFF9006AAE02FF9
:1038F200F0127B1B9006A8EFF0AB4DAA4EA94F9099
:103902000002121EEE900002121EAFFF9006AAE005
:103912002FF0127B1B9006A8EFF0AB4DAA4EA94FD9
:10392200900003121EEE9006AAE02FF09000031200
:103932001EAF9006A6F0E024FBF0E49006A8F090FB
:1039420006A6E0FF9006A8E0C39F5030127B1B90B2
:1039520006A9EFF0AB4DE54F2404F9E4354EFA9099
:1039620006A8E07C0029F9EC3AFAEF121EDC900678
:10397200AAE02FF09006A8E004F080C3127B1B900F
:1039820006A8EFF09006AAE06F60030237897F0174
:013992002212
:104B0D008D4CC299EF24FE600F0470189006A774A7
:104B1D004FF0A3744BF080169006A7744EF0A3745B
:104B2D0050F0800A9006A77445F0A37452F0EF641C
:104B3D000270709006A9F0A37407F0900001121E88
:104B4D00AF9006ABF0121E969006ACF0E4A3F09079
:104B5D0006A6F09006A6E0FFC39406501A74A72F80
:104B6D00F582E43406F583E0FF9006ADE02FF0907A
:104B7D0006A6E004F080DCE49006A6F09006A6E020
:104B8D00FFC394074003024C4774A72FF582E4340A
:104B9D0006F583E0F5993099FDC2999006A6E004DB
:104BAD00F080D9E54C24049006A9F0AF4C7E007836
:104BBD00AA7C067D01121E7074AA254CF582E43480
:104BCD0006F583E4F09006A6F0E54C2403FFE433EC
:104BDD00FE9006A6E0FDC39FEE6480F874809850A9
:104BED002274A72DF582E43406F583E0FF74AA251F
:104BFD004CF582E43406F583E02FF09006A6E00430
:104C0D00F080C6E49006A6F0E54C2404FFE433FEE4
:104C1D009006A6E0FDC39FEE6480F8748098501A4C
:104C2D0074A72DF582E43406F583E0F5993099FDEE
:0B4C3D00C2999006A6E004F080CE2291
:106C0D00C299ED2405FE9006A6F09006A8741BF01F
:106C1D00A37410F0A3EFF0A3EEF024A7F582E434F3
:106C2D0006F583E4F0AF05FE78AC7C067D01121EFF
:106C3D0070E49006A7F09006A6E0FF14FEA3E0FD19
:106C4D00C39E502174A82DF582E43406F583E0FE31
:106C5D0074A72FF582E43406F583E02EF09006A795
:106C6D00E004F080D1E49006A7F09006A6E0FFA323
:106C7D00E0FEC39F501A74A82EF582E43406F58306
:106C8D00E0F5993099FDC2999006A7E004F080DAFD
:016C9D0022D4
:107B1B00E49006ACF0A3F09006ACE475F001121FF4
:107B2B007730980B9006AEE599F0C298E0FF22D320
:107B3B009006ADE094009006ACE0940050D97FFF26
:017B4B002217
:10624600E4900466F0A3F07B017A0479687D02FC91
:106256007F0AFE127AE87B017A04796E7D047C005F
:106266007F107E00127AE8900465EFF060037F40AD
:1062760022900468E0FEA3E0FFE4FCFD7B2FFAF920
:10628600F8121FF2E42FFFE43EFEED3406FDE43C77
:10629600FC90046A12219290046A12215AEF242F6C
:1062A600FFE43EFEE43DFDE43CFC7B5F7AD77907E4
:1062B6007800C312210F50037F31227E007F2F7D8D
:1062C600FF7B017A0479A31223C590046A12215A2E
:1062D60075500075512F755201755304755472121D
:1062E6006EC578A37C047D017B017A0479727E00F9
:0E62F6007F2F1223A1EF60037F31227F002251
:104C48008F3D8E3C8D3B8C3A75500075512F7552B7
:104C580001755306755449126EC5900649E0C39410
:104C680020505EA3E0FFC394135056EF94004051C8
:104C7800A3E0FFD394004049EF943250447C067D72
:104C8800497F2F7E001276F6EF7036E53EB42F147A
:104C9800FF7E00A841AC40AD3F7B017A06794912FE
:104CA8001E70801AAF3DAE3CAD3BAC3A75500085E6
:104CB8003E51853F52854053854154126EC57F0051
:104CC80022E50A6003024D7A7B017A0679457D0464
:104CD800FC7F10FE127AE8900644EFF060037F40F4
:104CE80022E4253DFFE4353CFEE53B34FAFDE53A98
:104CF80034FFFC900645122166121FD775462F75A2
:104D08004701754806754949127377900644EFF0D4
:104D180060037F0122900649E0C394205054A3E029
:104D2800FFC39413504CEF94004047A3E0FFD39483
:104D380000403FEF9432503A7C067D497F2F7E0039
:104D48001276F6EF702C253DFFE4353CFEE53B344A
:104D5800FAFDE53A34FFFC900645122166121FD78A
:104D6800853E46853F478540488541491273777F90
:054D780000227F012272
:105D73008B308A3189327B017A0479D97D027C00A8
:105D83007F0A7E00127AE87B017A0479E37D047C42
:105D9300007F107E00127AE89004D8EFF060037F52
:105DA30040229004D9E0FEA3E0FFE4FCFD7B2FFA40
:105DB300F9F8121FF29004E3122166121FD7900420
:105DC300DB1221929004D9E0FEA3E0FFE4FCFD7B0B
:105DD3002FFAF9F8121FF2E42FFFE43EFEED34062A
:105DE300FDE43CFC9004DF1221929004DF12215A5F
:105DF30075370075382F85303985313A85323B1236
:105E03006E409004D8EFF060037F20229004D9E421
:105E130075F001121F777B017A0479D97D027C002A
:105E23007F0A7E00127A809004D8EFF060037F40EF
:105E330022E50A70129004DB12215A75372F85313F
:0A5E4300388532391269AB7F002266
:10578D008B268A2789287B017A047940126DBB907C
:10579D00043F7420F07B017A0479397D017C007F10
:1057AD00097E00127AE8900439E0FF7C047D5712DF
:1057BD0078A190043AEFF06003E0FF2278477C0473
:1057CD007D017B017A0479A67E007F04121E70781C
:1057DD004B7C047D017B017A04793F7E007F0412AE
:1057ED001E707C047D477F087E001276AC90043BD2
:1057FD00EEF0A3EFF078477C047D017B017A04790C
:10580D003F7E007F04121E70784B7C047D017B016E
:10581D007A0479A67E007F04121E707C047D477F7A
:10582D00087E001276AC90043DEEF0A3EFF0A828B0
:10583D00AC27AD267B017A04793C7E007F01121ED8
:10584D0070E5282401F9E43527A801FCAD267B017C
:10585D007A04793B7E007F01121E70E5282402F93F
:10586D00E43527A801FCAD267B017A04793E7E0044
:10587D007F02121E70E5282403F9E43527A801FCE8
:10588D00AD267B017A04793D7E007F02121E707F6A
:02589D000022E7
:084423008F358D368A378B3886
:10442B00127D799005FC741BF0A37410F0A3E53595
:10443B00F0A3E536F0D394054018E53624FBFFE4F2
:10444B0034FFFEAA37A9387B0178007C067D011268
:10445B001E70E49005FBF0F539E53614FFE539C322
:10446B009F501774FC2539F582E43405F583E0FF82
:10447B009005FBE02FF0053980DF9005FBE0FF7422
:10448B00FB2536F582E43405F583EFF0C299E4F5AC
:10449B0039E539C39536501774FC2539F582E43468
:1044AB0005F583E0F5993099FDC299053980E2C293
:1044BB00987F011277CFEFB42F06127D6B7F0B2203
:1044CB009005FCE599F0C298753901E539C3940361
:1044DB005023E4FF1277CFEFB42F06127D6B7F0BC7
:1044EB002274FC2539F582E43405F583E599F0C295
:1044FB0098053980D67539039005FEE0FFE539C381
:10450B009F5023E4FF1277CFEFB42F06127D6B7F02
:10451B000B2274FC2539F582E43405F583E599F01B
:10452B00C298053980D29005FEE02403F539900539
:10453B00FCE0644F701EA3E0B44B19AF397E00A8AA
:10454B0038AC377D017B017A0579FC121E70127D28
:10455B006B7F0022127D6B9005FFE01221F54582E7
:10456B0001458502458803458B04458E054591071A
:10457B00459408000045977F09227F02227F032282
:10458B007F04227F05227F07227F08227F0A227F5A
:01459B00001F
:01459C0022FC
:0475B2008A338B3459
:1075B600124423900565EFF06003E0FF22E53424D2
:1075C6000BFFE43533FEE5342403FDE43533FC7A62
:1075D600057B661260C07A057B667D0DE4FF12446A
:1075E60023900565EFF06003E0FF22A834AC337DFD
:1075F600017B017A0579667E007F0C121E707F0082
:017606002261
:08668D008F588E578D568C5575
:10669500E55925E0149006D3F0E47B0AFAF9F8AF42
:1066A50058AE57AD56AC5512207D9006D3E024B5B3
:1066B500F582E43406F583EBF0AF58AE57AD56AC32
:1066C50055E47B0AFAF9F812207D8F588E578D56BE
:1066D5008C559006D3E0FF14F0EF70BDF09006D313
:1066E500E0FF24B5F582E43406F583E0FEC454F0FA
:1066F500FE74B62FF582E43406F583E0540F4E851B
:106705005B82855A83F0055BE55B7002055A90064E
:10671500D3E02402F0E55975F002A4FFE0C39FE53C
:09672500F06480F874809840B41F
:01672E002248
:086304008D398B368A37893888
:10630C001221CF00000000E4900600F0900600E09F
:10631C00C3953940030263BFE0FF253BF582E435AA
:10632C003AF583E0FEC4540FFEEF25E024ECF58231
:10633C00E43405F583EEF0900600E0FF253BF58292
:10634C00E4353AF583E0540FFEEF25E024EDF582B9
:10635C00E43405F583EEF0AB36AA37A938122120C8
:10636C00E47B64FAF9F8121FF2A804A905AA06AB9B
:10637C0007900600E0FD25E024ECF582E43405F5F9
:10638C0083E075F00AA4FFED25E024EDF582E434FA
:10639C0005F583E07C002FFFEC35F0FEE4FD121FC9
:1063AC00D7AB36AA37A938122140900600E004F08A
:0363BC0002631861
:0163BF0022BB
:107960007A047BD77D057F5E1244239004F3EFF009
:107970006003E0FF227E047FE27C047DDA7A047BF0
:10798000EB1260C07A047BEB7D0DE4FF1244239080
:0B79900004F3EFF06003E0FF227F0033
:01799B0022C9
:044714008E538F54DD
:104718008F828E83E0FFC4540F75F00AA4FEEF5415
:104728000F2E9006B2F0855482855383A3E0FFC410
:10473800540F75F00AA4FEEF540F2E9006B3F085BF
:104748005482855383A3A3E0FFC4540F75F00AA4D1
:10475800FEEF540F2E9006B4F0E014F0E0FFE4FCF6
:10476800FDFE755901E5542402F55BE43553F55A0D
:1047780012668D9006B4E0600302486D9006B3E0BF
:1047880014F0E01221F547B90047E701480D024748
:10479800E70348480447E70548480647E70747E767
:1047A8000848480947E70A48480B47E70C0000480B
:1047B8006D9006B2E014F0E0FFE4FCFDFE755901CF
:1047C80085535A85545B12668D855482855383A31D
:1047D8007412F0855482855383A3A37431F0228523
:1047E8005482855383A3A37431F09006B3E0FFE4A9
:1047F800FCFDFE755901E5542401F55BE43553F5DC
:104808005A12668D229006B2E05403700D855482C8
:10481800855383A3A37429F0800B85548285538321
:10482800A3A37428F09006B3E0FFE4FCFDFE7559DD
:1048380001E5542401F55BE43553F55A12668D22DF
:10484800855482855383A3A37430F09006B3E0FFA8
:10485800E4FCFDFE755901E5542401F55BE435538C
:05486800F55A12668DF7
:01486D002228
:1070C6008B538A548955AB56AA57A958121E96FE59
:1070D600AB53AA54A955121E96FDD39E40037F02B8
:1070E60022ED6E7053AB56AA57A958900001121E96
:1070F600AFFEAB53AA54A955900001121EAFFDD3A3
:107106009E40037F0222ED6E702BAB56AA57A958FC
:10711600900002121EAFFEAB53AA54A9559000026E
:10712600121EAFFDD39E40037F0222EDB506037FFC
:0B71360001227F00227F00227F002248
:097DDA001FEF70FC1DED70F82292
:107D03007E088F20A2079296D297E52025E0F520E2
:067D1300C2971EEE70EEA7
:017D19002247
:107CB6007F08E4F520D296E52025E0F520D297A2AC
:0B7CC600969200C2971FEF70EEAF20F7
:017CD1002290
:107D1A00D2B3C297D294C2947D057F05127DDAD27E
:027D2A009422A1
:107D2C00C2B37F57127D03D297C297127CB6D2B3DF
:017D3C002224
:086C9E008E448F458A488B49A2
:106CA600E54525E0F545E54433F544D3ED94FFECA1
:106CB6009400400A0545E545700205447C00C2B3D0
:106CC6007F52127D03AF44127D03AF45127D03AFA1
:106CD60005127D03E4FF127D03E4127D03E4127DB9
:106CE60003E4127D03D297C297D3E5499408E54899
:106CF60094014006754801754908E4F54CF54DC305
:106D0600E54D9549E54C9548501B127CB6E54B255B
:106D16004DF582E54A354CF583EFF0054DE54D70AE
:076D260002054C80DAD2B334
:016D2D002243
:10799C008E698F6AE56A25E0F56AE56933F569C297
:1079AC00B37F53127D03AF69127D03AF6A127D035F
:1079BC00E4FF127D03D2B37D320F127DDA127D2CDF
:0A79CC00EF30E7037F00227F012265
:1079D6008E698F6AE56A25E0F56AE56933F569C25D
:1079E600B37F60127D03AF69127D03AF6A127D0318
:1079F600E4FF127D03D2B37D320F127DDA127D2CA5
:0A7A0600EF20E6037F00227F01223B
:0873E0008E698F6A8C6B8D6CC5
:1073E800D3E56A94FFE5699400400479018002E4DA
:1073F800F9C2B37F84127D03E4FF127D03AF01124B
:107408007D03AF6A127D03D3E56C9408E56B9401A4
:107418004006756B01756C08E4FDFCC3ED956CECDA
:10742800956B5014EB2DF582EA3CF583E0FF127D55
:0A743800030DED70010C80E3D2B3E8
:017442002227
:047817008E698F6A7D
:10781B00E56A25E0F56AE56933F569C2B37F831242
:10782B007D03AF69127D03AF6A127D03E4FF127D06
:10783B0003D2B3E4FCECC3944050147D327F0112AD
:10784B007DDA127D2CEF30E7037F00220C80E67F80
:01785B00012B
:01785C002209
:107923008E608F618C628D6312799CEF60037F019F
:1079330022AD03AC02AA67AB68AF63AE621273E019
:10794300AF61AE60127817EF60037F0122AF61AEC3
:0D795300601279D6EF60037F01227F0022D1
